:020000040000FA
:060000004BEF02F01200BC
:06001800D8EF00F0120019
:06002A000100C204000009
:080030008A0000000600000038
:080038006BD9FE0EDB50090834
:1000400005E2FE0EDB50F60F410F03D0FE0EDB5033
:10005000300FE552E7CFD9FF12003DD9FE0EDB503D
:100060000F0BDF6EDFCFE6FFE7DFE552E66E010E36
:10007000E76E3AD9E750E926000EEA22E552E7504A
:10008000EF6EFE0EDB380F0B0F0BE76E010EE7CFA6
:10009000DBFFDBCFE6FFD0DFE552E66E25D9E55288
:1000A000E750EF6E020EE15C02E2E16AE55217D121
:1000B000C280C282C2B2FED7C290C3CFF3FFC4CF08
:1000C000F4FF120008D9FF0EE76EFA0EDBCF02F044
:1000D000E7500216036A010E02C0DBFFFB0EDBCF06
:1000E00003F003C002F0036A0250DF6E010E0AD96A
:1000F000DFCFE6FFB2DFE552E552E552030E02D94B
:10010000010EDBCFE6FFA9DFE552E552E552F3D859
:10011000FC0EDBCFEFFF050EE76EEDD8E750E926CA
:10012000000EEA22EF6A050EC2D802C0F3FF03C038
:10013000F4FF020EE15C02E2E16AE552D0D0CBD8D6
:10014000DE6ADD6ADE6ADD6ADECF02F0DDCF03F053
:10015000D890035004E6400E025C000E035822E2E1
:10016000C26AA6DF00018A51F3248A6F8B51F42002
:100170008B6F040EC26E9CDF00018C51F3248C6FD8
:100180008D51F4208D6F080EC26E92DF00018E51EA
:10019000F3248E6F8F51F4208F6FDF2A010ED4E38A
:1001A000DB2AD2D7020EE15C02E2E16AE55297D087
:1001B000D8CFE4FFE0CFE4FFE46EDACFE4FFE6520D
:1001C000E552E5CFDAFFE550E5CFE0FFE5CFD8FF18
:1001D00010009ED8420EE1269268936A810E946EBA
:1001E000F70E896EC00E8A6E600E8B6EC26A1A0E92
:1001F000C16E9E0EC06EAB8E949C948EAC84400EED
:10020000E66EE66A2C0EE66EDCEC01F0E552E55295
:10021000E552D9CF02F0DACF03F0400ED9CFDBFFA1
:10022000410EDACFDBFF8BDF8AC0E6FF8BC0E6FF33
:10023000580E2AD88CC0E6FF8DC0E6FF590E24D890
:100240008EC0E6FF8FC0E6FF5A0E1ED83CD801E3F1
:10025000DB2A0D0EEF6E37D801E3DB2A0A0EEF6EB4
:1002600032D801E3DB2AEF6A00018A6B8B6B8C6B5F
:100270008D6B8E6B8F6B82A0CCD7D9CFE6FFDACF98
:10028000E6FF0EEC02F0C3D7E66E400EDBCFE6FFD2
:10029000410EDBCFE6FF16DF026E050EE15E025077
:1002A000400EF3CFDBFF410EF4CFDBFF1200E76E11
:1002B000FD0EDBCF02F0FE0EDBCF03F0E75002268F
:1002C000000E03221200400EDBCFE9FFDB2A410EB5
:1002D000DBCFEAFF12001CD8020EE1261200E16E0D
:1002E000E552E7CFD9FF1200FC0EDBCFE9FFFD0E90
:1002F000DBCFEAFF1200FD0EDBCFE9FFFE0EDBCF06
:10030000EAFF1200D4DF02C0E6FF03C0E6FF1200DE
:0A031000D9CFE6FFE1CFD9FF1200BC
:06031A002A0EF66E000E33
:10032000F76E000EF86E00010900F550856F0900A8
:10033000F550866F03E1856701D03DD00900F55087
:10034000806F0900F550816F0900F550826F090038
:100350000900F550E96E0900F550EA6E0900090040
:100360000900F550836F0900F550846F09000900FA
:10037000F6CF87F0F7CF88F0F8CF89F080C0F6FF8E
:1003800081C0F7FF82C0F8FF0001835302E184536C
:1003900007E00900F550EE6E8307F8E28407F9D70D
:1003A00087C0F6FF88C0F7FF89C0F8FF0001850706
:0803B000000E865BBFD71200AE
:0803B800D9CFE6FFDACFE6FF22
:1003C000E1CFD9FFE2CFDAFFAC6AAB6AFD0EDBA06A
:1003D00005D0AC88DBA404D0AC8E02D0DBB8AC84F2
:1003E000DBA202D0AC8CAB8CDBA602D0AB8801D0F8
:1003F000AB8ADBAC02D09D8A01D09D9ADBAE02D0E5
:100400009D8801D09D98FB0EDB50AF6EAC8AAB8E01
:0C041000E552E5CFDAFFE7CFD9FF12007C
:04041C00D9CFE6FF4F
:10042000DACFE6FFE1CFD9FFE2CFDAFFACA2FED709
:10043000FC0EDBCFE9FFFD0EDBCFEAFFEF50E66EEF
:1004400034EC02F0E552FC0EDBCFE9FFDB2AFD0EB7
:10045000DBCFEAFF01E3DB2AEF50E8E1E552E5CF2D
:08046000DAFFE7CFD9FF12001B
:08046800D9CFE6FFDACFE6FF71
:10047000E1CFD9FFE2CFDAFFACAC04D0AC90000101
:1004800090B3AC80FD0EDB50AD6EE552E5CFDAFFE8
:06049000E7CFD9FF1200C6
:0A04960011EE00F021EE00F0F86A0C
:1004A000019C8DEC01F060EC02F0E9EC00F0FBD770
:0204B000120038
:0E04B20000EE00F00F0EEE6AEA62FDD71200B7
:0204C000120028
:0604C20000000000000034
:020000040030CA
:01000100C638
:00000001FF
